:100000000C9472000C948F000C948F000C948F0051
:100010000C948F000C948F000C948F000C948F0024
:100020000C948F000C94E3010C948F000C949100BD
:100030000C948F000C948F000C948F000C948F0004
:100040000C948F000C948F000C948F000C948F00F4
:100050000C948F000C948F000C948F000C948F00E4
:100060000C948F000C948F000C948F000C948F00D4
:100070000C948F000C948F000C948F000C948F00C4
:100080000C948F000C948F000C948F000C944F01F3
:100090000C948F000C948F000C948F000C948F00A4
:1000A0000C948F000C948F000C941E040C948F0001
:1000B0000C948F000C948F000C948F000C948F0084
:1000C0000C948F000C948F000C948F000C948F0074
:1000D0000C948F000C948F000C948F000C948F0064
:1000E0000C948F0011241FBECFEFD1E2DEBFCDBF35
:1000F00012E0A0E0B2E0E2E5FFE002C005900D9260
:10010000A830B107D9F722E0A8E0B2E001C01D9203
:10011000A234B207E1F70E94E8050C94A7070C94FB
:1001200000001F920F920FB60F9211242F933F934E
:100130004F935F936F938F939F93EF93FF93609190
:1001400006016F7320E021C0422F50E081E090E073
:10015000022E02C0880F991F0A94E2F73091000224
:10016000382391F0862381F4FA01E75FFD4F808107
:1001700081110AC0FA01E75FFD4F81E08083809121
:1001800008028F5F809308022F5F2630E8F26093A9
:100190000002FF91EF919F918F916F915F914F912D
:1001A0003F912F910F900FBE0F901F901895CF93F6
:1001B000DF93F8949093100280930F02E0E8F0E050
:1001C00080818E7F8083808182608083A1E8B0E01F
:1001D0008C9188618C93C6E8D0E08FEF9FEF998374
:1001E00088838C918A7F8C938C9182608C938081A0
:1001F0008068808380818F7B808380818062808320
:1002000080818F7E80836881798180E090E00E9488
:10021000AC0620E030E040E85EE30E9412070E9456
:100220007D0670938900609388006881798180E001
:1002300090E00E94AC0620E030E040E85EE30E94DF
:1002400012070E947D0670938B0060938A0084B130
:10025000806684B984B18E7F84B984B18D7F84B97E
:1002600084B18F7784B985B1816085B985B18260A9
:1002700085B985B1806885B9E7E0F1E08081806C5F
:100280008083E8E6F0E0808181608083EBE6F0E047
:100290008081836080837894DF91CF9108951F924D
:1002A0000F920FB60F9211242F933F934F935F93AA
:1002B0006F937F938F939F93AF93BF93EF93FF932E
:1002C000809113028230C1F480911202882369F078
:1002D000EBE6F0E080818068808310921202E0916A
:1002E0000F02F0911002099505C0EBE6F0E0808165
:1002F000836080831092130280911302813049F44D
:100300008FEA9CE3909395008093940082E0809321
:100310001302FF91EF91BF91AF919F918F917F91C8
:100320006F915F914F913F912F910F900FBE0F9062
:100330001F901895EBE6F0E080818D7F808381E04F
:1003400080931302E1E8F0E080818F7D80838081DB
:100350008F7E808380911702823011F41092030205
:1003600080911702813021F41092170280930302CA
:100370000895EBE6F0E080818E7F808381E08093BA
:100380001302E0E8F0E080818F77808380818F7BAB
:10039000808380911602813011F480930402809151
:1003A0001602823021F4109216021092040208956F
:1003B000EBE6F0E080818E7F808381E08093130202
:1003C0008093120208951F920F920FB60F9211247C
:1003D0002F933F934F935F936F937F938F939F934D
:1003E000AF93BF93EF93FF9383B18093110282E0A9
:1003F0000E94460483E00E94460484E00E94460472
:100400008091110280930102189B0E94B901199BEF
:100410000E949A011F9B0E94D801FF91EF91BF910A
:10042000AF919F918F917F916F915F914F913F918C
:100430002F910F900FBE0F901F901895FC01A8E010
:10044000B1E09C9190649C93A0E8B0E09C9190688E
:100450009C939C919F7B9C9391E09093160290912A
:100460000402913009F409950895FC01A8E0B1E077
:100470009C919F7B9C93A0E8B0E09C9190689C939A
:100480009C919F7B9C9382E0809316028091040252
:10049000811101C009950895FC01A8E0B1E09C918B
:1004A00090689C93A1E8B0E09C9190629C939C9191
:1004B0009F7E9C9391E0909317029091030291305C
:1004C00009F409950895FC01109215029091140207
:1004D00091112EC080910202813091F4A8E0B1E028
:1004E0008C918F778C93A1E8B0E08C9180628C9393
:1004F0008C918F7E8C9382E080931702109202027F
:1005000080910302811114C0A8E0B1E08C91806851
:100510008C93A1E8B0E08C9180628C938C918F7E5B
:100520008C9381E0809317028093140280930202DF
:1005300090911402913029F480910302813009F4E2
:100540000995089580911A02882349F08091180234
:1005500090911902019690931902809318020895C0
:10056000CF93DF93EC0180911D02811102C00E94A4
:100570005D038091280282FF0CC0809128028B7F4E
:10058000809328020E946B0381E080931D02FE018C
:100590000995DF91CF91089580911F02811109C0C3
:1005A0000E945D031092200281E080931F020E944E
:1005B00091048091280282FF1BC0809128028B7FCA
:1005C000809328028091200281110AC00E946B034F
:1005D0000E944F0381E0809320020E9497040895B7
:1005E0000E946B030E945D03109220020E949104FE
:1005F0000895CF93DF93EC0110921C0280911E02AC
:10060000811121C00E9499038091280284FF1BC0A0
:10061000809128028F7E809328020E94B5030E9459
:10062000820310921C028091280283FF0CC08091EB
:100630002802877F809328020E94900381E08093A4
:100640001E02FE01099580911E02813011F40E9464
:100650009104DF91CF910895CF93DF93FC01109225
:100660001E0290911B02911117C0EF010E946B03B3
:100670000E9497040E94A7038091280284FF0CC067
:10068000809128028F7E809328020E94B50381E02A
:1006900080931B02FE010995DF91CF910895EBE055
:1006A000F1E080818E7F8083E0E2F1E080818068EC
:1006B000808380818F7B80830895EBE0F1E08081EF
:1006C00081608083E0E2F1E08081806880838081C6
:1006D0008F7B80830895E0E2F1E080818F778083D3
:1006E00080818F7B80830895EBE0F1E080818260E0
:1006F0008083E0E2F1E080818062808380818F7E70
:1007000080830895EBE0F1E080818D7F8083E0E2DB
:10071000F1E080818062808380818F7E8083089574
:10072000E0E2F1E080818F7D808380818F7E808315
:100730000895EBE0F1E0808184608083E0E2F1E005
:1007400080818860808380818B7F80830895EBE047
:10075000F1E080818B7F8083E0E2F1E0808188603E
:10076000808380818B7F80830895E0E2F1E0808147
:10077000877F808380818B7F808308958091320280
:10078000813049F48091300290913102019690932A
:1007900031028093300280912E02813049F48091A1
:1007A0002C0290912D02019690932D0280932C02A1
:1007B00080912B02813049F48091290290912A0284
:1007C000019690932A028093290220E034C0422FA0
:1007D00050E0FA01EB5FFD4F30818091270290E0FD
:1007E000032E02C0959587950A94E2F780FF22C0F8
:1007F000FA01EE0FFF1FEF5DFD4F808191810196A1
:1008000091838083808191810A97A0F081E090E0BC
:1008100002C0880F991F3A95E2F7909127028095C0
:10082000892380932702440F551FFA01EF5DFD4F86
:10083000118210822F5F233050F208951F920F9281
:100840000FB60F9211242F933F934F935F936F93A3
:100850007F938F939F93AF93BF93EF93FF930E94E8
:10086000BE030E9470050E94A202FF91EF91BF910A
:10087000AF919F918F917F916F915F914F913F9138
:100880002F910F900FBE0F901F90189590E045C0CC
:10089000292F30E0F901EB5FFD4F408148133CC048
:1008A0004091110250E0082E02C0559547950A94D8
:1008B000E2F740FD35C04091010250E0082E02C031
:1008C000559547950A94E2F740FF2AC040912702C8
:1008D00050E0082E02C0559547950A94E2F740FD76
:1008E0001FC041E050E0BA0102C0660F771F8A9531
:1008F000E2F7CB0190912802982B909328029091D7
:100900002702892B80932702220F331FF901EF5D05
:10091000FD4F1182108208959F5F933008F4B8CF85
:100920000895EBE0F1E08081806480830895EBE03E
:10093000F1E080818F7B80830895CF93DF93EC017A
:1009400080912F02811107C081E080932E02809355
:100950002B0280932F0280912C0290912D02803DDA
:10096000974050F50E944F030E94A70380912802F0
:1009700084FD07C08091290290912A02893E93400C
:10098000A0F1809128028F7E8093280210922B0282
:1009900010922A02109229020E94B5030E94740349
:1009A0008091280283FF21C080912802877F809355
:1009B00028020E94900319C00E946B030E94B50395
:1009C0000E94900380912802837E809328021092D7
:1009D0002D0210922C0210922E0210922B021092D5
:1009E0002A0210922902FE010995DF91CF91089504
:1009F00081E080933D02089581E080933302089561
:100A000081E080934102089581E080933A02089545
:100A100081E080933F02089584E08093400208952E
:100A200082E080934002089583E08093400208951D
:100A30000E9472060E94D70010923E0282E08093CC
:100A40003502109239021092380210923C02109234
:100A50003B02109237021092360210923F0210921F
:100A60003A021092400210923D021092330210920C
:100A70004102089580913302811109C08CEF94E006
:100A80000E942C031092330285E080933E02089569
:100A900080913A02811104C084E095E00E944C02EA
:100AA00080913F02811104C088E095E00E943502E8
:100AB00080914002811104C08CE095E00E949D0469
:100AC00080913A02882359F080913402882339F0CA
:100AD00080914002843019F482E080933E020895B0
:100AE00020913802309139022F5F3F4F3093390205
:100AF00020933802809136029091370201969093AC
:100B000037028093360280913B0290913C0201961D
:100B100090933C0280933B0240913E02413031F47D
:100B2000293B3B401CF022E020933E0220913502FD
:100B3000211106C0813395471CF081E08093350276
:100B4000089580913D02811104C088EF94E00E94D5
:100B5000630280914002833079F0843019F0823052
:100B6000A1F405C080E195E00E94F902089584E1B6
:100B700095E00E94B002089580913D02882329F0FB
:100B800083E080933E0210923D02089580913602E8
:100B9000909137028D3A9D40D4F0809141028111AD
:100BA00006C080E095E00E941E02109241028091F2
:100BB0003502813029F410923E0282E080933502A2
:100BC00080913502811103C081E080933E02089537
:100BD0000E94180580913E02833089F028F481300C
:100BE00041F0823049F0F6CF843061F0853069F011
:100BF000F1CF0E944805EECF0E94A105EBCF0E94E5
:100C0000CC02E8CF0E943A05E5CF0E94C605E2CFAC
:100C100084B1837E84B9E8E6F0E0808181608083DE
:100C2000EBE6F0E080818C6180830895EAE0F1E0FA
:100C3000808187608083808188638083E0E2F1E047
:100C400080818E7F8083808182608083E1E2F1E019
:100C500080818860808380818061808380818260E0
:100C6000808380818A7F808380E09DE79093290143
:100C70008093280190932B0180932A0190932D015A
:100C800080932C018FEF9FEF909327018093260193
:100C90000895EAE0F1E08081806480830895E0EACD
:100CA000F0E080818C7F8083E1EAF0E080818F7EBC
:100CB000808380818860808380818260808380815E
:100CC0008A7F808387EE93E09093A9008093A800A9
:100CD000E2E7F0E08081826080831092A5001092AC
:100CE000A4000895F8940E9408060E9416060E9427
:100CF00049060E944F06789408950E94F10688F0F4
:100D00009F5798F0B92F9927B751B0F0E1F0660FCF
:100D1000771F881F991F1AF0BA95C9F714C0B13010
:100D200091F00E940B07B1E008950C940B07672F18
:100D3000782F8827B85F39F0B93FCCF3869577953F
:100D40006795B395D9F73EF4909580957095619528
:100D50007F4F8F4F9F4F0895E89409C097FB3EF453
:100D600090958095709561957F4F8F4F9F4F9923F8
:100D7000A9F0F92F96E9BB279395F6958795779576
:100D80006795B795F111F8CFFAF4BB0F11F460FF36
:100D90001BC06F5F7F4F8F4F9F4F16C0882311F08E
:100DA00096E911C0772321F09EE8872F762F05C0A2
:100DB000662371F096E8862F70E060E02AF09A953D
:100DC000660F771F881FDAF7880F9695879597F932
:100DD000089557FD9058440F551F59F05F3F71F02B
:100DE0004795880F97FB991F61F09F3F79F0879592
:100DF0000895121613061406551FF2CF4695F1DF1B
:100E000008C0161617061806991FF1CF86957105AA
:100E1000610508940895E894BB2766277727CB01DE
:100E200097F908950E9425070C9496070E94880759
:100E300038F00E948F0720F0952311F00C947F0763
:100E40000C94850711240C940C070E94E90670F39A
:100E5000959FC1F3950F50E0551F629FF001729F5F
:100E6000BB27F00DB11D639FAA27F00DB11DAA1F6E
:100E7000649F6627B00DA11D661F829F2227B00DBB
:100E8000A11D621F739FB00DA11D621F839FA00D46
:100E9000611D221F749F3327A00D611D231F849F96
:100EA000600D211D822F762F6A2F11249F575040ED
:100EB0009AF0F1F088234AF0EE0FFF1FBB1F661F68
:100EC000771F881F91505040A9F79E3F510580F031
:100ED0000C947F070C940C075F3FE4F3983ED4F327
:100EE000869577956795B795F795E7959F5FC1F7D5
:100EF000FE2B880F911D9695879597F9089597F980
:100F00009F6780E870E060E008959FEF80EC0895AF
:100F100000240A94161617061806090608950024D8
:100F20000A9412161306140605060895092E039452
:100F3000000C11F4882352F0BB0F40F4BF2B11F4C6
:100F400060FF04C06F5F7F4F8F4F9F4F0895F894ED
:020F5000FFCFD1
:080F52003FFF0102020203044B
:00000001FF
