S0150000496E746567726163696F6E56322E7372656314
S11300000C9472000C948F000C948F000C948F004D
S11300100C948F000C948F000C948F000C948F0020
S11300200C948F000C943E020C948F000C94A3004B
S11300300C948F000C948F000C948F000C948F0000
S11300400C948F000C948F000C948F000C948F00F0
S11300500C948F000C948F000C948F000C948F00E0
S11300600C948F000C948F000C948F000C948F00D0
S11300700C948F000C948F000C948F000C948F00C0
S11300800C948F000C948F000C948F000C94AA0194
S11300900C948F000C948F000C948F000C948F00A0
S11300A00C948F000C948F000C9444050C948F00D6
S11300B00C948F000C948F000C948F000C948F0080
S11300C00C948F000C948F000C948F000C948F0070
S11300D00C948F000C948F000C948F000C948F0060
S11300E00C948F0011241FBECFEFD1E2DEBFCDBF31
S11300F012E0A0E0B2E0ECE5F2E102C005900D925E
S1130100A431B107D9F722E0A4E1B2E001C01D9205
S1130110A535B207E1F70E9465070C942C090C94ED
S11301200000F894E7E0F1E08081807C8083E8E6D9
S1130130F0E0808184608083EDE6F0E080818F636D
S11301408083789408951F920F920FB60F92112412
S11301502F933F934F935F936F938F939F93EF935B
S1130160FF93609106016F7320E021C0422F50E09D
S113017081E090E0022E02C0880F991F0A94E2F7F2
S113018030910002382391F0862381F4FA01EB5E6A
S1130190FD4F808181110AC0FA01EB5EFD4F81E0C1
S11301A08083809114028F5F809314022F5F263026
S11301B0E8F260930002FF91EF919F918F916F910C
S11301C05F914F913F912F910F900FBE0F901F9011
S11301D0189580911402089580E006C0E82FF0E09D
S11301E0EB5EFD4F10828F5F8630C0F38091060175
S11301F08F738093000208950E94EC001092140201
S11302000895F894E0E9F0E080818F7B8083808119
S11302108F778083E1E9F0E0808182608083808150
S11302208E7F808380818B7F80838FEA9CE3909391
S1130230950080939400E1E7F0E080818160808301
S113024078940895EBE6F0E020812F77208322E074
S11302502093200221E020931F0290931C0280939C
S11302601B020895CF93DF93F89490931C0280931C
S11302701B02E0E8F0E080818E7F808380818260D1
S11302808083A1E8B0E08C9188618C93C6E8D0E0CB
S11302908FEF9FEF998388838C918A7F8C938C91C5
S11302A082608C9380818068808380818F7B80834F
S11302B080818062808380818F7E80836881798160
S11302C080E090E00E94310820E030E040E85EE306
S11302D00E9497080E940208709389006093880026
S11302E06881798180E090E00E94310820E030E06C
S11302F040E85EE30E9497080E94020870938B0016
S113030060938A0084B1806684B984B18E7F84B995
S113031084B18D7F84B984B18F7784B985B18160CC
S113032085B985B1826085B985B1806885B9E7E012
S1130330F1E08081806C8083E8E6F0E08081816078
S11303408083EBE6F0E08081836880837894DF919A
S1130350CF9108951F920F920FB60F9211242F93ED
S11303603F934F935F936F937F938F939F93AF9339
S1130370BF93EF93FF93809120028230F9F4809130
S11303801F02882371F0EBE6F0E0808180688083AF
S113039010921F02E0911B02F0911C02309709F0A9
S11303A0099580911E02882339F0EBE6F0E0808104
S11303B08360808310921E0210922002809120029A
S11303C0813049F48FEA9CE39093950080939400E4
S11303D082E080932002FF91EF91BF91AF919F91B2
S11303E08F917F916F915F914F913F912F910F90DA
S11303F00FBE0F901F901895EBE6F0E080818D7F83
S1130400808381E08093200280931E02E1E8F0E083
S113041080818F7D808380818F7E80838091240280
S1130420823011F41092040280912402813021F46C
S113043010922402809304020895EBE6F0E0808198
S11304408E7F808381E08093200280931E02E0E807
S1130450F0E080818F77808380818F7B808380919F
S11304602302813011F480930502809123028230AB
S113047021F4109223021092050208951F920F9204
S11304800FB60F9211242F933F934F935F936F9363
S11304907F938F939F93AF93BF93EF93FF9383B116
S11304A080931D0282E00E946E0583E00E946E0527
S11304B084E00E946E0580911D0280930102189BC6
S11304C00E941D02199B0E94FC011F9906C0809185
S11304D01B0290911C020E942201FF91EF91BF9197
S11304E0AF919F918F917F916F915F914F913F91C8
S11304F02F910F900FBE0F901F901895FC01A8E04C
S1130500B1E09C9190649C93A0E8B0E09C919068C9
S11305109C939C919F7B9C9391E090932302909158
S11305200502913009F409950895FC01A8E0B1E0B1
S11305309C919F7B9C93A0E8B0E09C9190689C93D5
S11305409C919F7B9C9382E080932302809105027F
S1130550811101C009950895FC01A8E0B1E09C91C6
S113056090689C93A1E8B0E09C9190629C939C91CC
S11305709F7E9C9391E09093240290910402913089
S113058009F409950895FC01109222029091210228
S113059091112EC080910302813091F4A8E0B1E062
S11305A08C918F778C93A1E8B0E08C9180628C93CE
S11305B08C918F7E8C9382E08093240210920302AC
S11305C080910402811114C0A8E0B1E08C9180688C
S11305D08C93A1E8B0E08C9180628C938C918F7E97
S11305E08C9381E080932402809321028093030200
S11305F090912102913029F480910402813009F410
S113060009950895109221028091220281112FC030
S113061080910202813091F4E8E0F1E0808180640D
S11306208083E0E8F0E080818068808380818F7B34
S1130630808381E08093230210920202809105025C
S11306408130A9F4E8E0F1E080818F7B8083E0E8E9
S1130650F0E080818068808380818F7B808382E06A
S11306608093230281E08093220280930202089502
S113067080912702882349F08091250290912602D7
S11306800196909326028093250208958FEF8AB9EC
S11306908BB18F778BB908958A3010F01BB80AC0DC
S11306A02BB1E82FF0E0EA5FFD4F9081822F807834
S11306B0892B8BB9611104C08BB18F778BB90895E5
S11306C08BB180688BB908959DEC899F912D11247D
S11306D0969596959695392F330F232F220F220F37
S11306E0230F382F321B843630F181E080932702A8
S11306F080912502909126020A9728F461E08AE00D
S11307000E944C03089580912502909126020A9735
S113071058F08091250290912602449728F460E0D5
S11307208AE00E944C03089510922602109225023A
S113073010922702089581E08093270240912502B8
S1130740509126024A30510528F461E0892F0E9415
S11307504C03089580912502909126020A9758F03F
S11307608091250290912602449728F460E0832F1B
S11307700E944C03089510922602109225021092B2
S11307802702089580912902882329F08091280264
S11307908F5F809328020895CF93DF93EC018091BB
S11307A02C02811102C00E9483048091370282FFCF
S11307B00CC0809137028B7F809337020E94910492
S11307C081E080932C02FE010995DF91CF91089579
S11307D080912E02811109C00E94830410922F027D
S11307E081E080932E020E94B9058091370282FF36
S11307F01BC0809137028B7F8093370280912F0238
S113080081110AC00E9491040E94750481E08093C2
S11308102F020E94BF0508950E9491040E94830440
S113082010922F020E94B9050895CF93DF93EC0133
S113083010922B0280912D0281112BC00E94BF04C3
S113084081E0809329028091370284FF22C0809145
S113085037028F7E809337020E94DB040E94A80433
S113086010922B028091370283FD03C080912802ED
S113087010C080913702877F809337020E94B604AC
S113088081E080932D021092290210922802FE0129
S1130890099580912D02813011F40E94B905DF91F0
S11308A0CF910895CF93DF93FC0110922D02909184
S11308B02A02911117C0EF010E9491040E94BF0502
S11308C00E94CD048091370284FF0CC080913702CE
S11308D08F7E809337020E94DB0481E080932A029A
S11308E0FE010995DF91CF910895EBE0F1E080815D
S11308F08E7F8083E0E2F1E0808180688083808164
S11309008F7B80830895EBE0F1E0808181608083B8
S1130910E0E2F1E080818068808380818F7B808346
S11309200895E0E2F1E080818F77808380818F7B7E
S113093080830895EBE0F1E0808182608083E0E2CF
S1130940F1E080818062808380818F7E808308953E
S1130950EBE0F1E080818D7F8083E0E2F1E0808153
S11309608062808380818F7E80830895E0E2F1E05D
S113097080818F7D808380818F7E80830895EBE0EA
S1130980F1E0808184608083E0E2F1E0808188602E
S1130990808380818B7F80830895EBE0F1E0808108
S11309A08B7F8083E0E2F1E08081886080838081B6
S11309B08B7F80830895E0E2F1E08081877F8083EC
S11309C080818B7F8083089580914102813049F436
S11309D080913F029091400201969093400280934F
S11309E03F0280913D02813049F480913B02909115
S11309F03C02019690933C0280933B0280913A0220
S1130A00813049F480913802909139020196909393
S1130A1039028093380220E034C0422F50E0FA01BA
S1130A20EF5EFD4F30818091360290E0032E02C0CC
S1130A30959587950A94E2F780FF22C0FA01EE0F9C
S1130A40FF1FE05DFD4F808191810196918380833A
S1130A50808191814497A0F081E090E002C0880FEA
S1130A60991F3A95E2F790913602809589238093F5
S1130A703602440F551FFA01E05DFD4F11821082CA
S1130A802F5F233050F208951F920F920FB60F92EA
S1130A9011242F933F934F935F936F937F938F937F
S1130AA09F93AF93BF93EF93FF930E94E4040E943C
S1130AB0C2060E9438030E94C203FF91EF91BF91C6
S1130AC0AF919F918F917F916F915F914F913F91E2
S1130AD02F910F900FBE0F901F90189590E045C076
S1130AE0292F30E0F901EF5EFD4F408148133CC0EF
S1130AF040911D0250E0082E02C0559547950A9476
S1130B00E2F740FD35C04091010250E0082E02C0DA
S1130B10559547950A94E2F740FF2AC04091360262
S1130B2050E0082E02C0559547950A94E2F740FD1F
S1130B301FC041E050E0BA0102C0660F771F8A95DA
S1130B40E2F7CB0190913702982B90933702909162
S1130B503602892B80933602220F331FF901E05DA0
S1130B60FD4F1182108208959F5F933008F4B8CF2F
S1130B700895EBE0F1E08081806480830895EBE0E8
S1130B80F1E080818F7B80830895CF93DF93EC0124
S1130B9080913E02811107C081E080933D028093E1
S1130BA03A0280933E0280913B0290913C02803D48
S1130BB0974050F50E9475040E94CD04809137023D
S1130BC084FD07C08091380290913902893E934098
S1130BD0A0F1809137028F7E8093370210923A02FF
S1130BE010923902109238020E94DB040E949A0487
S1130BF08091370283FF21C080913702877F8093E1
S1130C0037020E94B60419C00E9491040E94DB04BA
S1130C100E94B60480913702837E8093370210923B
S1130C203C0210923B0210923D0210923A02109242
S1130C30390210923802FE010995DF91CF9108958F
S1130C4081E080934F02089581E0809343020895E8
S1130C5081E080935402089581E080934B020895CB
S1130C6081E080935102089582E0809353020895B5
S1130C7083E080935302089584E08093530281E0DB
S1130C808093440208958091500281110BC0109208
S1130C904A021092490281E0809350021092460267
S1130CA00E94FC0080915002833059F480914602E6
S1130CB0823038F484E080935002109248021092FB
S1130CC047021092420208950E94F7070E94010110
S1130CD083E496E00E9432010E9491000E94460340
S1130CE01092500282E08093460210924A021092BF
S1130CF0490210924D0210924C0210924802109236
S1130D0047021092450210925102089580914302C5
S1130D10811107C084E296E00E94520485E080932A
S1130D205002089510924B021092530210924F02F7
S1130D301092430210925402109252028CE296E0F6
S1130D400E94AC0280915102811104C080E396E0BC
S1130D500E94950280915302811104C08CE396E0B5
S1130D600E94C50580914B02882359F0809144026A
S1130D70882339F080915302843019F482E08093FF
S1130D80500208958091490290914A0201969093ED
S1130D904A02809349028091470290914802019649
S1130DA0909348028093470280914C0290914D02A7
S1130DB0019690934D0280934C020E9438038091D7
S1130DC05002813051F48091490290914A02893B4A
S1130DD09B401CF082E08093500280914602811176
S1130DE00DC080914C0290914D028133954734F0AF
S1130DF084E68093450281E08093460208958091C1
S1130E004F02811104C080E296E00E94C3028091E7
S1130E105302833079F0843019F08230A1F405C094
S1130E2084E396E00E9415040EC088E396E00E94D5
S1130E30CC0309C080914F02882329F083E080937A
S1130E40500210924F02109242020895809147027C
S1130E50909148028D3A2DE092078CF184369941A5
S1130E6014F40E9402038091420281110EC00E9478
S1130E70E90090914502890F8093450280934E02C8
S1130E8081E0809342020E94EC008091540281111F
S1130E9006C088E296E00E947E021092540280917D
S1130EA04602813029F41092500282E08093460277
S1130EB080914602811103C081E08093500208951D
S1130EC01092450210924E0208950E946406809189
S1130ED04E020E94640380915002823091F028F403
S1130EE0882349F0813051F0F2CF843081F060F0F2
S1130EF0853081F0ECCF0E946007E9CF0E94920612
S1130F00E6CF0E94FF06E3CF0E94E803E0CF0E94F1
S1130F108606DDCF0E942607DACF84B1837E84B9AA
S1130F20E8E6F0E0808181608083EBE6F0E0808198
S1130F308C6180830895EAE0F1E08081876080839A
S1130F40808188638083E0E2F1E080818E7F80830A
S1130F50808182608083E1E2F1E080818860808327
S1130F6080818061808380818260808380818A7FA8
S1130F70808380E09DE790932901809328019093DA
S1130F802B0180932A0190932D0180932C018FEFE4
S1130F909FEF90932701809326010895EAE0F1E002
S1130FA08081806480830895E0EAF0E080818C7F12
S1130FB08083E1EAF0E080818F7E80838081886095
S1130FC0808380818260808380818A7F808387EEB2
S1130FD093E09093A9008093A800E2E7F0E0808179
S1130FE0826080831092A5001092A4000895F89462
S1130FF00E948D070E949B070E94CE070E94D4077F
S1131000789408950E94760888F09F5798F0B92F35
S11310109927B751B0F0E1F0660F771F881F991F29
S11310201AF0BA95C9F714C0B13091F00E94900833
S1131030B1E008950C949008672F782F8827B85F43
S113104039F0B93FCCF3869577956795B395D9F781
S11310503EF490958095709561957F4F8F4F9F4F8B
S11310600895E89409C097FB3EF490958095709597
S113107061957F4F8F4F9F4F9923A9F0F92F96E9E0
S1131080BB279395F695879577956795B795F11155
S1131090F8CFFAF4BB0F11F460FF1BC06F5F7F4FF2
S11310A08F4F9F4F16C0882311F096E911C0772304
S11310B021F09EE8872F762F05C0662371F096E80D
S11310C0862F70E060E02AF09A95660F771F881FDC
S11310D0DAF7880F9695879597F9089557FD9058F4
S11310E0440F551F59F05F3F71F04795880F97FBE8
S11310F0991F61F09F3F79F08795089512161306A2
S11311001406551FF2CF4695F1DF08C016161706D0
S11311101806991FF1CF8695710561050894089505
S1131120E894BB2766277727CB0197F908950E9497
S1131130AA080C941B090E940D0938F00E94140996
S113114020F0952311F00C9404090C940A0911243D
S11311500C9491080E946E0870F3959FC1F3950F4B
S113116050E0551F629FF001729FBB27F00DB11D27
S1131170639FAA27F00DB11DAA1F649F6627B00DB7
S1131180A11D661F829F2227B00DA11D621F739FA0
S1131190B00DA11D621F839FA00D611D221F749FAE
S11311A03327A00D611D231F849F600D211D822FF5
S11311B0762F6A2F11249F5750409AF0F1F088231C
S11311C04AF0EE0FFF1FBB1F661F771F881F915049
S11311D05040A9F79E3F510580F00C9404090C94EB
S11311E091085F3FE4F3983ED4F38695779567952D
S11311F0B795F795E7959F5FC1F7FE2B880F911D73
S11312009695879597F9089597F99F6780E870E018
S113121060E008959FEF80EC089500240A94161668
S1131220170618060906089500240A9412161306D0
S1131230140605060895092E0394000C11F488235E
S113124052F0BB0F40F4BF2B11F460FF04C06F5F7A
S10F12507F4F8F4F9F4F0895F894FFCFFD
S113125C3FFF010102023F065B4F666D7D077F6F06
S107126C0002030471
S9030000FC
